{
  "_format": "hh-sol-artifact-1",
  "contractName": "MyTokenNFT",
  "sourceName": "contracts/Token.sol",
  "abi": [
    {
      "inputs": [],
      "stateMutability": "nonpayable",
      "type": "constructor"
    },
    {
      "anonymous": false,
      "inputs": [
        {
          "indexed": true,
          "internalType": "address",
          "name": "owner",
          "type": "address"
        },
        {
          "indexed": true,
          "internalType": "address",
          "name": "approved",
          "type": "address"
        },
        {
          "indexed": true,
          "internalType": "uint256",
          "name": "tokenId",
          "type": "uint256"
        }
      ],
      "name": "Approval",
      "type": "event"
    },
    {
      "anonymous": false,
      "inputs": [
        {
          "indexed": true,
          "internalType": "address",
          "name": "owner",
          "type": "address"
        },
        {
          "indexed": true,
          "internalType": "address",
          "name": "operator",
          "type": "address"
        },
        {
          "indexed": false,
          "internalType": "bool",
          "name": "approved",
          "type": "bool"
        }
      ],
      "name": "ApprovalForAll",
      "type": "event"
    },
    {
      "anonymous": false,
      "inputs": [
        {
          "indexed": false,
          "internalType": "uint256",
          "name": "_fromTokenId",
          "type": "uint256"
        },
        {
          "indexed": false,
          "internalType": "uint256",
          "name": "_toTokenId",
          "type": "uint256"
        }
      ],
      "name": "BatchMetadataUpdate",
      "type": "event"
    },
    {
      "anonymous": false,
      "inputs": [
        {
          "indexed": false,
          "internalType": "uint256",
          "name": "_tokenId",
          "type": "uint256"
        }
      ],
      "name": "MetadataUpdate",
      "type": "event"
    },
    {
      "anonymous": false,
      "inputs": [
        {
          "indexed": true,
          "internalType": "address",
          "name": "previousOwner",
          "type": "address"
        },
        {
          "indexed": true,
          "internalType": "address",
          "name": "newOwner",
          "type": "address"
        }
      ],
      "name": "OwnershipTransferred",
      "type": "event"
    },
    {
      "anonymous": false,
      "inputs": [
        {
          "indexed": true,
          "internalType": "address",
          "name": "from",
          "type": "address"
        },
        {
          "indexed": true,
          "internalType": "address",
          "name": "to",
          "type": "address"
        },
        {
          "indexed": true,
          "internalType": "uint256",
          "name": "tokenId",
          "type": "uint256"
        }
      ],
      "name": "Transfer",
      "type": "event"
    },
    {
      "inputs": [
        {
          "internalType": "address",
          "name": "to",
          "type": "address"
        },
        {
          "internalType": "uint256",
          "name": "tokenId",
          "type": "uint256"
        }
      ],
      "name": "approve",
      "outputs": [],
      "stateMutability": "nonpayable",
      "type": "function"
    },
    {
      "inputs": [
        {
          "internalType": "address",
          "name": "owner",
          "type": "address"
        }
      ],
      "name": "balanceOf",
      "outputs": [
        {
          "internalType": "uint256",
          "name": "",
          "type": "uint256"
        }
      ],
      "stateMutability": "view",
      "type": "function"
    },
    {
      "inputs": [
        {
          "internalType": "uint256",
          "name": "tokenId",
          "type": "uint256"
        }
      ],
      "name": "getApproved",
      "outputs": [
        {
          "internalType": "address",
          "name": "",
          "type": "address"
        }
      ],
      "stateMutability": "view",
      "type": "function"
    },
    {
      "inputs": [
        {
          "internalType": "address",
          "name": "owner",
          "type": "address"
        },
        {
          "internalType": "address",
          "name": "operator",
          "type": "address"
        }
      ],
      "name": "isApprovedForAll",
      "outputs": [
        {
          "internalType": "bool",
          "name": "",
          "type": "bool"
        }
      ],
      "stateMutability": "view",
      "type": "function"
    },
    {
      "inputs": [
        {
          "internalType": "string",
          "name": "uri",
          "type": "string"
        }
      ],
      "name": "isContentOwned",
      "outputs": [
        {
          "internalType": "bool",
          "name": "",
          "type": "bool"
        }
      ],
      "stateMutability": "view",
      "type": "function"
    },
    {
      "inputs": [],
      "name": "name",
      "outputs": [
        {
          "internalType": "string",
          "name": "",
          "type": "string"
        }
      ],
      "stateMutability": "view",
      "type": "function"
    },
    {
      "inputs": [],
      "name": "owner",
      "outputs": [
        {
          "internalType": "address",
          "name": "",
          "type": "address"
        }
      ],
      "stateMutability": "view",
      "type": "function"
    },
    {
      "inputs": [
        {
          "internalType": "uint256",
          "name": "tokenId",
          "type": "uint256"
        }
      ],
      "name": "ownerOf",
      "outputs": [
        {
          "internalType": "address",
          "name": "",
          "type": "address"
        }
      ],
      "stateMutability": "view",
      "type": "function"
    },
    {
      "inputs": [
        {
          "internalType": "address",
          "name": "recipient",
          "type": "address"
        },
        {
          "internalType": "string[]",
          "name": "metadataURIs",
          "type": "string[]"
        }
      ],
      "name": "payToMint",
      "outputs": [
        {
          "internalType": "uint256",
          "name": "",
          "type": "uint256"
        }
      ],
      "stateMutability": "payable",
      "type": "function"
    },
    {
      "inputs": [],
      "name": "renounceOwnership",
      "outputs": [],
      "stateMutability": "nonpayable",
      "type": "function"
    },
    {
      "inputs": [
        {
          "internalType": "address",
          "name": "to",
          "type": "address"
        },
        {
          "internalType": "string",
          "name": "uri",
          "type": "string"
        }
      ],
      "name": "safeMint",
      "outputs": [],
      "stateMutability": "nonpayable",
      "type": "function"
    },
    {
      "inputs": [
        {
          "internalType": "address",
          "name": "from",
          "type": "address"
        },
        {
          "internalType": "address",
          "name": "to",
          "type": "address"
        },
        {
          "internalType": "uint256",
          "name": "tokenId",
          "type": "uint256"
        }
      ],
      "name": "safeTransferFrom",
      "outputs": [],
      "stateMutability": "nonpayable",
      "type": "function"
    },
    {
      "inputs": [
        {
          "internalType": "address",
          "name": "from",
          "type": "address"
        },
        {
          "internalType": "address",
          "name": "to",
          "type": "address"
        },
        {
          "internalType": "uint256",
          "name": "tokenId",
          "type": "uint256"
        },
        {
          "internalType": "bytes",
          "name": "data",
          "type": "bytes"
        }
      ],
      "name": "safeTransferFrom",
      "outputs": [],
      "stateMutability": "nonpayable",
      "type": "function"
    },
    {
      "inputs": [
        {
          "internalType": "address",
          "name": "operator",
          "type": "address"
        },
        {
          "internalType": "bool",
          "name": "approved",
          "type": "bool"
        }
      ],
      "name": "setApprovalForAll",
      "outputs": [],
      "stateMutability": "nonpayable",
      "type": "function"
    },
    {
      "inputs": [
        {
          "internalType": "bytes4",
          "name": "interfaceId",
          "type": "bytes4"
        }
      ],
      "name": "supportsInterface",
      "outputs": [
        {
          "internalType": "bool",
          "name": "",
          "type": "bool"
        }
      ],
      "stateMutability": "view",
      "type": "function"
    },
    {
      "inputs": [],
      "name": "symbol",
      "outputs": [
        {
          "internalType": "string",
          "name": "",
          "type": "string"
        }
      ],
      "stateMutability": "view",
      "type": "function"
    },
    {
      "inputs": [
        {
          "internalType": "uint256",
          "name": "tokenId",
          "type": "uint256"
        }
      ],
      "name": "tokenURI",
      "outputs": [
        {
          "internalType": "string",
          "name": "",
          "type": "string"
        }
      ],
      "stateMutability": "view",
      "type": "function"
    },
    {
      "inputs": [
        {
          "internalType": "address",
          "name": "from",
          "type": "address"
        },
        {
          "internalType": "address",
          "name": "to",
          "type": "address"
        },
        {
          "internalType": "uint256",
          "name": "tokenId",
          "type": "uint256"
        }
      ],
      "name": "transferFrom",
      "outputs": [],
      "stateMutability": "nonpayable",
      "type": "function"
    },
    {
      "inputs": [
        {
          "internalType": "address",
          "name": "newOwner",
          "type": "address"
        }
      ],
      "name": "transferOwnership",
      "outputs": [],
      "stateMutability": "nonpayable",
      "type": "function"
    }
  ],
  "bytecode": "0x60806040523480156200001157600080fd5b506040518060400160405280600a81526020017f4d79546f6b656e4e4654000000000000000000000000000000000000000000008152506040518060400160405280600481526020017f564e46540000000000000000000000000000000000000000000000000000000081525081600090816200008f919062000412565b508060019081620000a1919062000412565b505050620000c4620000b8620000ca60201b60201c565b620000d260201b60201c565b620004f9565b600033905090565b6000600760009054906101000a900473ffffffffffffffffffffffffffffffffffffffff16905081600760006101000a81548173ffffffffffffffffffffffffffffffffffffffff021916908373ffffffffffffffffffffffffffffffffffffffff1602179055508173ffffffffffffffffffffffffffffffffffffffff168173ffffffffffffffffffffffffffffffffffffffff167f8be0079c531659141344cd1fd0a4f28419497f9722a3daafe3b4186f6b6457e060405160405180910390a35050565b600081519050919050565b7f4e487b7100000000000000000000000000000000000000000000000000000000600052604160045260246000fd5b7f4e487b7100000000000000000000000000000000000000000000000000000000600052602260045260246000fd5b600060028204905060018216806200021a57607f821691505b60208210810362000230576200022f620001d2565b5b50919050565b60008190508160005260206000209050919050565b60006020601f8301049050919050565b600082821b905092915050565b6000600883026200029a7fffffffffffffffffffffffffffffffffffffffffffffffffffffffffffffffff826200025b565b620002a686836200025b565b95508019841693508086168417925050509392505050565b6000819050919050565b6000819050919050565b6000620002f3620002ed620002e784620002be565b620002c8565b620002be565b9050919050565b6000819050919050565b6200030f83620002d2565b620003276200031e82620002fa565b84845462000268565b825550505050565b600090565b6200033e6200032f565b6200034b81848462000304565b505050565b5b8181101562000373576200036760008262000334565b60018101905062000351565b5050565b601f821115620003c2576200038c8162000236565b62000397846200024b565b81016020851015620003a7578190505b620003bf620003b6856200024b565b83018262000350565b50505b505050565b600082821c905092915050565b6000620003e760001984600802620003c7565b1980831691505092915050565b6000620004028383620003d4565b9150826002028217905092915050565b6200041d8262000198565b67ffffffffffffffff811115620004395762000438620001a3565b5b62000445825462000201565b6200045282828562000377565b600060209050601f8311600181146200048a576000841562000475578287015190505b620004818582620003f4565b865550620004f1565b601f1984166200049a8662000236565b60005b82811015620004c4578489015182556001820191506020850194506020810190506200049d565b86831015620004e45784890151620004e0601f891682620003d4565b8355505b6001600288020188555050505b505050505050565b61356b80620005096000396000f3fe6080604052600436106101145760003560e01c80638da5cb5b116100a0578063b88d4fde11610064578063b88d4fde146103b6578063c87b56dd146103df578063d204c45e1461041c578063e985e9c514610445578063f2fde38b1461048257610114565b80638da5cb5b146102ca57806395d89b41146102f55780639f1cabc614610320578063a22cb4651461035d578063a5954d171461038657610114565b806323b872dd116100e757806323b872dd146101e757806342842e0e146102105780636352211e1461023957806370a0823114610276578063715018a6146102b357610114565b806301ffc9a71461011957806306fdde0314610156578063081812fc14610181578063095ea7b3146101be575b600080fd5b34801561012557600080fd5b50610140600480360381019061013b9190611fd9565b6104ab565b60405161014d9190612021565b60405180910390f35b34801561016257600080fd5b5061016b61050c565b60405161017891906120d5565b60405180910390f35b34801561018d57600080fd5b506101a860048036038101906101a3919061212d565b61059e565b6040516101b5919061219b565b60405180910390f35b3480156101ca57600080fd5b506101e560048036038101906101e091906121e2565b6105e4565b005b3480156101f357600080fd5b5061020e60048036038101906102099190612222565b6106fb565b005b34801561021c57600080fd5b5061023760048036038101906102329190612222565b61075b565b005b34801561024557600080fd5b50610260600480360381019061025b919061212d565b61077b565b60405161026d919061219b565b60405180910390f35b34801561028257600080fd5b5061029d60048036038101906102989190612275565b610801565b6040516102aa91906122b1565b60405180910390f35b3480156102bf57600080fd5b506102c86108b8565b005b3480156102d657600080fd5b506102df6108cc565b6040516102ec919061219b565b60405180910390f35b34801561030157600080fd5b5061030a6108f6565b60405161031791906120d5565b60405180910390f35b34801561032c57600080fd5b5061034760048036038101906103429190612401565b610988565b6040516103549190612021565b60405180910390f35b34801561036957600080fd5b50610384600480360381019061037f9190612476565b6109c3565b005b6103a0600480360381019061039b919061259c565b6109d9565b6040516103ad91906122b1565b60405180910390f35b3480156103c257600080fd5b506103dd60048036038101906103d89190612699565b610b4d565b005b3480156103eb57600080fd5b506104066004803603810190610401919061212d565b610baf565b60405161041391906120d5565b60405180910390f35b34801561042857600080fd5b50610443600480360381019061043e919061271c565b610bc1565b005b34801561045157600080fd5b5061046c60048036038101906104679190612778565b610bfa565b6040516104799190612021565b60405180910390f35b34801561048e57600080fd5b506104a960048036038101906104a49190612275565b610c8e565b005b6000634906490660e01b7bffffffffffffffffffffffffffffffffffffffffffffffffffffffff1916827bffffffffffffffffffffffffffffffffffffffffffffffffffffffff19161480610505575061050482610d11565b5b9050919050565b60606000805461051b906127e7565b80601f0160208091040260200160405190810160405280929190818152602001828054610547906127e7565b80156105945780601f1061056957610100808354040283529160200191610594565b820191906000526020600020905b81548152906001019060200180831161057757829003601f168201915b5050505050905090565b60006105a982610df3565b6004600083815260200190815260200160002060009054906101000a900473ffffffffffffffffffffffffffffffffffffffff169050919050565b60006105ef8261077b565b90508073ffffffffffffffffffffffffffffffffffffffff168373ffffffffffffffffffffffffffffffffffffffff160361065f576040517f08c379a00000000000000000000000000000000000000000000000000000000081526004016106569061288a565b60405180910390fd5b8073ffffffffffffffffffffffffffffffffffffffff1661067e610e3e565b73ffffffffffffffffffffffffffffffffffffffff1614806106ad57506106ac816106a7610e3e565b610bfa565b5b6106ec576040517f08c379a00000000000000000000000000000000000000000000000000000000081526004016106e39061291c565b60405180910390fd5b6106f68383610e46565b505050565b61070c610706610e3e565b82610eff565b61074b576040517f08c379a0000000000000000000000000000000000000000000000000000000008152600401610742906129ae565b60405180910390fd5b610756838383610f94565b505050565b61077683838360405180602001604052806000815250610b4d565b505050565b6000806107878361128d565b9050600073ffffffffffffffffffffffffffffffffffffffff168173ffffffffffffffffffffffffffffffffffffffff16036107f8576040517f08c379a00000000000000000000000000000000000000000000000000000000081526004016107ef90612a1a565b60405180910390fd5b80915050919050565b60008073ffffffffffffffffffffffffffffffffffffffff168273ffffffffffffffffffffffffffffffffffffffff1603610871576040517f08c379a000000000000000000000000000000000000000000000000000000000815260040161086890612aac565b60405180910390fd5b600360008373ffffffffffffffffffffffffffffffffffffffff1673ffffffffffffffffffffffffffffffffffffffff168152602001908152602001600020549050919050565b6108c06112ca565b6108ca6000611348565b565b6000600760009054906101000a900473ffffffffffffffffffffffffffffffffffffffff16905090565b606060018054610905906127e7565b80601f0160208091040260200160405190810160405280929190818152602001828054610931906127e7565b801561097e5780601f106109535761010080835404028352916020019161097e565b820191906000526020600020905b81548152906001019060200180831161096157829003601f168201915b5050505050905090565b6000600160088360405161099c9190612b08565b908152602001604051809103902060009054906101000a900460ff1660ff16149050919050565b6109d56109ce610e3e565b838361140e565b5050565b6000815166b1a2bc2ec500006109ef9190612b4e565b341015610a31576040517f08c379a0000000000000000000000000000000000000000000000000000000008152600401610a2890612bf4565b60405180910390fd5b60005b8251811015610b46576000838281518110610a5257610a51612c14565b5b602002602001015190506001600882604051610a6e9190612b08565b908152602001604051809103902060009054906101000a900460ff1660ff1603610acd576040517f08c379a0000000000000000000000000000000000000000000000000000000008152600401610ac490612c8f565b60405180910390fd5b6000610ad9600961157a565b9050610ae56009611588565b6001600883604051610af79190612b08565b908152602001604051809103902060006101000a81548160ff021916908360ff160217905550610b27868261159e565b610b3181836117bb565b50508080610b3e90612caf565b915050610a34565b5092915050565b610b5e610b58610e3e565b83610eff565b610b9d576040517f08c379a0000000000000000000000000000000000000000000000000000000008152600401610b94906129ae565b60405180910390fd5b610ba98484848461185f565b50505050565b6060610bba826118bb565b9050919050565b610bc96112ca565b6000610bd5600961157a565b9050610be16009611588565b610beb83826119cd565b610bf581836117bb565b505050565b6000600560008473ffffffffffffffffffffffffffffffffffffffff1673ffffffffffffffffffffffffffffffffffffffff16815260200190815260200160002060008373ffffffffffffffffffffffffffffffffffffffff1673ffffffffffffffffffffffffffffffffffffffff16815260200190815260200160002060009054906101000a900460ff16905092915050565b610c966112ca565b600073ffffffffffffffffffffffffffffffffffffffff168173ffffffffffffffffffffffffffffffffffffffff1603610d05576040517f08c379a0000000000000000000000000000000000000000000000000000000008152600401610cfc90612d69565b60405180910390fd5b610d0e81611348565b50565b60007f80ac58cd000000000000000000000000000000000000000000000000000000007bffffffffffffffffffffffffffffffffffffffffffffffffffffffff1916827bffffffffffffffffffffffffffffffffffffffffffffffffffffffff19161480610ddc57507f5b5e139f000000000000000000000000000000000000000000000000000000007bffffffffffffffffffffffffffffffffffffffffffffffffffffffff1916827bffffffffffffffffffffffffffffffffffffffffffffffffffffffff1916145b80610dec5750610deb826119eb565b5b9050919050565b610dfc81611a55565b610e3b576040517f08c379a0000000000000000000000000000000000000000000000000000000008152600401610e3290612a1a565b60405180910390fd5b50565b600033905090565b816004600083815260200190815260200160002060006101000a81548173ffffffffffffffffffffffffffffffffffffffff021916908373ffffffffffffffffffffffffffffffffffffffff160217905550808273ffffffffffffffffffffffffffffffffffffffff16610eb98361077b565b73ffffffffffffffffffffffffffffffffffffffff167f8c5be1e5ebec7d5bd14f71427d1e84f3dd0314c0f7b2291e5b200ac8c7c3b92560405160405180910390a45050565b600080610f0b8361077b565b90508073ffffffffffffffffffffffffffffffffffffffff168473ffffffffffffffffffffffffffffffffffffffff161480610f4d5750610f4c8185610bfa565b5b80610f8b57508373ffffffffffffffffffffffffffffffffffffffff16610f738461059e565b73ffffffffffffffffffffffffffffffffffffffff16145b91505092915050565b8273ffffffffffffffffffffffffffffffffffffffff16610fb48261077b565b73ffffffffffffffffffffffffffffffffffffffff161461100a576040517f08c379a000000000000000000000000000000000000000000000000000000000815260040161100190612dfb565b60405180910390fd5b600073ffffffffffffffffffffffffffffffffffffffff168273ffffffffffffffffffffffffffffffffffffffff1603611079576040517f08c379a000000000000000000000000000000000000000000000000000000000815260040161107090612e8d565b60405180910390fd5b6110868383836001611a96565b8273ffffffffffffffffffffffffffffffffffffffff166110a68261077b565b73ffffffffffffffffffffffffffffffffffffffff16146110fc576040517f08c379a00000000000000000000000000000000000000000000000000000000081526004016110f390612dfb565b60405180910390fd5b6004600082815260200190815260200160002060006101000a81549073ffffffffffffffffffffffffffffffffffffffff02191690556001600360008573ffffffffffffffffffffffffffffffffffffffff1673ffffffffffffffffffffffffffffffffffffffff168152602001908152602001600020600082825403925050819055506001600360008473ffffffffffffffffffffffffffffffffffffffff1673ffffffffffffffffffffffffffffffffffffffff16815260200190815260200160002060008282540192505081905550816002600083815260200190815260200160002060006101000a81548173ffffffffffffffffffffffffffffffffffffffff021916908373ffffffffffffffffffffffffffffffffffffffff160217905550808273ffffffffffffffffffffffffffffffffffffffff168473ffffffffffffffffffffffffffffffffffffffff167fddf252ad1be2c89b69c2b068fc378daa952ba7f163c4a11628f55a4df523b3ef60405160405180910390a46112888383836001611a9c565b505050565b60006002600083815260200190815260200160002060009054906101000a900473ffffffffffffffffffffffffffffffffffffffff169050919050565b6112d2610e3e565b73ffffffffffffffffffffffffffffffffffffffff166112f06108cc565b73ffffffffffffffffffffffffffffffffffffffff1614611346576040517f08c379a000000000000000000000000000000000000000000000000000000000815260040161133d90612ef9565b60405180910390fd5b565b6000600760009054906101000a900473ffffffffffffffffffffffffffffffffffffffff16905081600760006101000a81548173ffffffffffffffffffffffffffffffffffffffff021916908373ffffffffffffffffffffffffffffffffffffffff1602179055508173ffffffffffffffffffffffffffffffffffffffff168173ffffffffffffffffffffffffffffffffffffffff167f8be0079c531659141344cd1fd0a4f28419497f9722a3daafe3b4186f6b6457e060405160405180910390a35050565b8173ffffffffffffffffffffffffffffffffffffffff168373ffffffffffffffffffffffffffffffffffffffff160361147c576040517f08c379a000000000000000000000000000000000000000000000000000000000815260040161147390612f65565b60405180910390fd5b80600560008573ffffffffffffffffffffffffffffffffffffffff1673ffffffffffffffffffffffffffffffffffffffff16815260200190815260200160002060008473ffffffffffffffffffffffffffffffffffffffff1673ffffffffffffffffffffffffffffffffffffffff16815260200190815260200160002060006101000a81548160ff0219169083151502179055508173ffffffffffffffffffffffffffffffffffffffff168373ffffffffffffffffffffffffffffffffffffffff167f17307eab39ab6107e8899845ad3d59bd9653f200f220920489ca2b5937696c318360405161156d9190612021565b60405180910390a3505050565b600081600001549050919050565b6001816000016000828254019250508190555050565b600073ffffffffffffffffffffffffffffffffffffffff168273ffffffffffffffffffffffffffffffffffffffff160361160d576040517f08c379a000000000000000000000000000000000000000000000000000000000815260040161160490612fd1565b60405180910390fd5b61161681611a55565b15611656576040517f08c379a000000000000000000000000000000000000000000000000000000000815260040161164d9061303d565b60405180910390fd5b611664600083836001611a96565b61166d81611a55565b156116ad576040517f08c379a00000000000000000000000000000000000000000000000000000000081526004016116a49061303d565b60405180910390fd5b6001600360008473ffffffffffffffffffffffffffffffffffffffff1673ffffffffffffffffffffffffffffffffffffffff16815260200190815260200160002060008282540192505081905550816002600083815260200190815260200160002060006101000a81548173ffffffffffffffffffffffffffffffffffffffff021916908373ffffffffffffffffffffffffffffffffffffffff160217905550808273ffffffffffffffffffffffffffffffffffffffff16600073ffffffffffffffffffffffffffffffffffffffff167fddf252ad1be2c89b69c2b068fc378daa952ba7f163c4a11628f55a4df523b3ef60405160405180910390a46117b7600083836001611a9c565b5050565b6117c482611a55565b611803576040517f08c379a00000000000000000000000000000000000000000000000000000000081526004016117fa906130cf565b60405180910390fd5b80600660008481526020019081526020016000209081611823919061329b565b507ff8e1a15aba9398e019f0b49df1a4fde98ee17ae345cb5f6b5e2c27f5033e8ce78260405161185391906122b1565b60405180910390a15050565b61186a848484610f94565b61187684848484611aa2565b6118b5576040517f08c379a00000000000000000000000000000000000000000000000000000000081526004016118ac906133df565b60405180910390fd5b50505050565b60606118c682610df3565b60006006600084815260200190815260200160002080546118e6906127e7565b80601f0160208091040260200160405190810160405280929190818152602001828054611912906127e7565b801561195f5780601f106119345761010080835404028352916020019161195f565b820191906000526020600020905b81548152906001019060200180831161194257829003601f168201915b505050505090506000611970611c29565b905060008151036119855781925050506119c8565b6000825111156119ba5780826040516020016119a29291906133ff565b604051602081830303815290604052925050506119c8565b6119c384611c66565b925050505b919050565b6119e7828260405180602001604052806000815250611cce565b5050565b60007f01ffc9a7000000000000000000000000000000000000000000000000000000007bffffffffffffffffffffffffffffffffffffffffffffffffffffffff1916827bffffffffffffffffffffffffffffffffffffffffffffffffffffffff1916149050919050565b60008073ffffffffffffffffffffffffffffffffffffffff16611a778361128d565b73ffffffffffffffffffffffffffffffffffffffff1614159050919050565b50505050565b50505050565b6000611ac38473ffffffffffffffffffffffffffffffffffffffff16611d29565b15611c1c578373ffffffffffffffffffffffffffffffffffffffff1663150b7a02611aec610e3e565b8786866040518563ffffffff1660e01b8152600401611b0e9493929190613478565b6020604051808303816000875af1925050508015611b4a57506040513d601f19601f82011682018060405250810190611b4791906134d9565b60015b611bcc573d8060008114611b7a576040519150601f19603f3d011682016040523d82523d6000602084013e611b7f565b606091505b506000815103611bc4576040517f08c379a0000000000000000000000000000000000000000000000000000000008152600401611bbb906133df565b60405180910390fd5b805181602001fd5b63150b7a0260e01b7bffffffffffffffffffffffffffffffffffffffffffffffffffffffff1916817bffffffffffffffffffffffffffffffffffffffffffffffffffffffff191614915050611c21565b600190505b949350505050565b60606040518060400160405280600781526020017f697066733a2f2f00000000000000000000000000000000000000000000000000815250905090565b6060611c7182610df3565b6000611c7b611c29565b90506000815111611c9b5760405180602001604052806000815250611cc6565b80611ca584611d4c565b604051602001611cb69291906133ff565b6040516020818303038152906040525b915050919050565b611cd8838361159e565b611ce56000848484611aa2565b611d24576040517f08c379a0000000000000000000000000000000000000000000000000000000008152600401611d1b906133df565b60405180910390fd5b505050565b6000808273ffffffffffffffffffffffffffffffffffffffff163b119050919050565b606060006001611d5b84611e1a565b01905060008167ffffffffffffffff811115611d7a57611d796122d6565b5b6040519080825280601f01601f191660200182016040528015611dac5781602001600182028036833780820191505090505b509050600082602001820190505b600115611e0f578080600190039150507f3031323334353637383961626364656600000000000000000000000000000000600a86061a8153600a8581611e0357611e02613506565b5b04945060008503611dba575b819350505050919050565b600080600090507a184f03e93ff9f4daa797ed6e38ed64bf6a1f0100000000000000008310611e78577a184f03e93ff9f4daa797ed6e38ed64bf6a1f0100000000000000008381611e6e57611e6d613506565b5b0492506040810190505b6d04ee2d6d415b85acef81000000008310611eb5576d04ee2d6d415b85acef81000000008381611eab57611eaa613506565b5b0492506020810190505b662386f26fc100008310611ee457662386f26fc100008381611eda57611ed9613506565b5b0492506010810190505b6305f5e1008310611f0d576305f5e1008381611f0357611f02613506565b5b0492506008810190505b6127108310611f32576127108381611f2857611f27613506565b5b0492506004810190505b60648310611f555760648381611f4b57611f4a613506565b5b0492506002810190505b600a8310611f64576001810190505b80915050919050565b6000604051905090565b600080fd5b600080fd5b60007fffffffff0000000000000000000000000000000000000000000000000000000082169050919050565b611fb681611f81565b8114611fc157600080fd5b50565b600081359050611fd381611fad565b92915050565b600060208284031215611fef57611fee611f77565b5b6000611ffd84828501611fc4565b91505092915050565b60008115159050919050565b61201b81612006565b82525050565b60006020820190506120366000830184612012565b92915050565b600081519050919050565b600082825260208201905092915050565b60005b8381101561207657808201518184015260208101905061205b565b83811115612085576000848401525b50505050565b6000601f19601f8301169050919050565b60006120a78261203c565b6120b18185612047565b93506120c1818560208601612058565b6120ca8161208b565b840191505092915050565b600060208201905081810360008301526120ef818461209c565b905092915050565b6000819050919050565b61210a816120f7565b811461211557600080fd5b50565b60008135905061212781612101565b92915050565b60006020828403121561214357612142611f77565b5b600061215184828501612118565b91505092915050565b600073ffffffffffffffffffffffffffffffffffffffff82169050919050565b60006121858261215a565b9050919050565b6121958161217a565b82525050565b60006020820190506121b0600083018461218c565b92915050565b6121bf8161217a565b81146121ca57600080fd5b50565b6000813590506121dc816121b6565b92915050565b600080604083850312156121f9576121f8611f77565b5b6000612207858286016121cd565b925050602061221885828601612118565b9150509250929050565b60008060006060848603121561223b5761223a611f77565b5b6000612249868287016121cd565b935050602061225a868287016121cd565b925050604061226b86828701612118565b9150509250925092565b60006020828403121561228b5761228a611f77565b5b6000612299848285016121cd565b91505092915050565b6122ab816120f7565b82525050565b60006020820190506122c660008301846122a2565b92915050565b600080fd5b600080fd5b7f4e487b7100000000000000000000000000000000000000000000000000000000600052604160045260246000fd5b61230e8261208b565b810181811067ffffffffffffffff8211171561232d5761232c6122d6565b5b80604052505050565b6000612340611f6d565b905061234c8282612305565b919050565b600067ffffffffffffffff82111561236c5761236b6122d6565b5b6123758261208b565b9050602081019050919050565b82818337600083830152505050565b60006123a461239f84612351565b612336565b9050828152602081018484840111156123c0576123bf6122d1565b5b6123cb848285612382565b509392505050565b600082601f8301126123e8576123e76122cc565b5b81356123f8848260208601612391565b91505092915050565b60006020828403121561241757612416611f77565b5b600082013567ffffffffffffffff81111561243557612434611f7c565b5b612441848285016123d3565b91505092915050565b61245381612006565b811461245e57600080fd5b50565b6000813590506124708161244a565b92915050565b6000806040838503121561248d5761248c611f77565b5b600061249b858286016121cd565b92505060206124ac85828601612461565b9150509250929050565b600067ffffffffffffffff8211156124d1576124d06122d6565b5b602082029050602081019050919050565b600080fd5b60006124fa6124f5846124b6565b612336565b9050808382526020820190506020840283018581111561251d5761251c6124e2565b5b835b8181101561256457803567ffffffffffffffff811115612542576125416122cc565b5b80860161254f89826123d3565b8552602085019450505060208101905061251f565b5050509392505050565b600082601f830112612583576125826122cc565b5b81356125938482602086016124e7565b91505092915050565b600080604083850312156125b3576125b2611f77565b5b60006125c1858286016121cd565b925050602083013567ffffffffffffffff8111156125e2576125e1611f7c565b5b6125ee8582860161256e565b9150509250929050565b600067ffffffffffffffff821115612613576126126122d6565b5b61261c8261208b565b9050602081019050919050565b600061263c612637846125f8565b612336565b905082815260208101848484011115612658576126576122d1565b5b612663848285612382565b509392505050565b600082601f8301126126805761267f6122cc565b5b8135612690848260208601612629565b91505092915050565b600080600080608085870312156126b3576126b2611f77565b5b60006126c1878288016121cd565b94505060206126d2878288016121cd565b93505060406126e387828801612118565b925050606085013567ffffffffffffffff81111561270457612703611f7c565b5b6127108782880161266b565b91505092959194509250565b6000806040838503121561273357612732611f77565b5b6000612741858286016121cd565b925050602083013567ffffffffffffffff81111561276257612761611f7c565b5b61276e858286016123d3565b9150509250929050565b6000806040838503121561278f5761278e611f77565b5b600061279d858286016121cd565b92505060206127ae858286016121cd565b9150509250929050565b7f4e487b7100000000000000000000000000000000000000000000000000000000600052602260045260246000fd5b600060028204905060018216806127ff57607f821691505b602082108103612812576128116127b8565b5b50919050565b7f4552433732313a20617070726f76616c20746f2063757272656e74206f776e6560008201527f7200000000000000000000000000000000000000000000000000000000000000602082015250565b6000612874602183612047565b915061287f82612818565b604082019050919050565b600060208201905081810360008301526128a381612867565b9050919050565b7f4552433732313a20617070726f76652063616c6c6572206973206e6f7420746f60008201527f6b656e206f776e6572206f7220617070726f76656420666f7220616c6c000000602082015250565b6000612906603d83612047565b9150612911826128aa565b604082019050919050565b60006020820190508181036000830152612935816128f9565b9050919050565b7f4552433732313a2063616c6c6572206973206e6f7420746f6b656e206f776e6560008201527f72206f7220617070726f76656400000000000000000000000000000000000000602082015250565b6000612998602d83612047565b91506129a38261293c565b604082019050919050565b600060208201905081810360008301526129c78161298b565b9050919050565b7f4552433732313a20696e76616c696420746f6b656e2049440000000000000000600082015250565b6000612a04601883612047565b9150612a0f826129ce565b602082019050919050565b60006020820190508181036000830152612a33816129f7565b9050919050565b7f4552433732313a2061646472657373207a65726f206973206e6f74206120766160008201527f6c6964206f776e65720000000000000000000000000000000000000000000000602082015250565b6000612a96602983612047565b9150612aa182612a3a565b604082019050919050565b60006020820190508181036000830152612ac581612a89565b9050919050565b600081905092915050565b6000612ae28261203c565b612aec8185612acc565b9350612afc818560208601612058565b80840191505092915050565b6000612b148284612ad7565b915081905092915050565b7f4e487b7100000000000000000000000000000000000000000000000000000000600052601160045260246000fd5b6000612b59826120f7565b9150612b64836120f7565b9250817fffffffffffffffffffffffffffffffffffffffffffffffffffffffffffffffff0483118215151615612b9d57612b9c612b1f565b5b828202905092915050565b7f496e73756666696369656e74207061796d656e74210000000000000000000000600082015250565b6000612bde601583612047565b9150612be982612ba8565b602082019050919050565b60006020820190508181036000830152612c0d81612bd1565b9050919050565b7f4e487b7100000000000000000000000000000000000000000000000000000000600052603260045260246000fd5b7f4e465420616c7265616479206d696e7465642100000000000000000000000000600082015250565b6000612c79601383612047565b9150612c8482612c43565b602082019050919050565b60006020820190508181036000830152612ca881612c6c565b9050919050565b6000612cba826120f7565b91507fffffffffffffffffffffffffffffffffffffffffffffffffffffffffffffffff8203612cec57612ceb612b1f565b5b600182019050919050565b7f4f776e61626c653a206e6577206f776e657220697320746865207a65726f206160008201527f6464726573730000000000000000000000000000000000000000000000000000602082015250565b6000612d53602683612047565b9150612d5e82612cf7565b604082019050919050565b60006020820190508181036000830152612d8281612d46565b9050919050565b7f4552433732313a207472616e736665722066726f6d20696e636f72726563742060008201527f6f776e6572000000000000000000000000000000000000000000000000000000602082015250565b6000612de5602583612047565b9150612df082612d89565b604082019050919050565b60006020820190508181036000830152612e1481612dd8565b9050919050565b7f4552433732313a207472616e7366657220746f20746865207a65726f2061646460008201527f7265737300000000000000000000000000000000000000000000000000000000602082015250565b6000612e77602483612047565b9150612e8282612e1b565b604082019050919050565b60006020820190508181036000830152612ea681612e6a565b9050919050565b7f4f776e61626c653a2063616c6c6572206973206e6f7420746865206f776e6572600082015250565b6000612ee3602083612047565b9150612eee82612ead565b602082019050919050565b60006020820190508181036000830152612f1281612ed6565b9050919050565b7f4552433732313a20617070726f766520746f2063616c6c657200000000000000600082015250565b6000612f4f601983612047565b9150612f5a82612f19565b602082019050919050565b60006020820190508181036000830152612f7e81612f42565b9050919050565b7f4552433732313a206d696e7420746f20746865207a65726f2061646472657373600082015250565b6000612fbb602083612047565b9150612fc682612f85565b602082019050919050565b60006020820190508181036000830152612fea81612fae565b9050919050565b7f4552433732313a20746f6b656e20616c7265616479206d696e74656400000000600082015250565b6000613027601c83612047565b915061303282612ff1565b602082019050919050565b600060208201905081810360008301526130568161301a565b9050919050565b7f45524337323155524953746f726167653a2055524920736574206f66206e6f6e60008201527f6578697374656e7420746f6b656e000000000000000000000000000000000000602082015250565b60006130b9602e83612047565b91506130c48261305d565b604082019050919050565b600060208201905081810360008301526130e8816130ac565b9050919050565b60008190508160005260206000209050919050565b60006020601f8301049050919050565b600082821b905092915050565b6000600883026131517fffffffffffffffffffffffffffffffffffffffffffffffffffffffffffffffff82613114565b61315b8683613114565b95508019841693508086168417925050509392505050565b6000819050919050565b600061319861319361318e846120f7565b613173565b6120f7565b9050919050565b6000819050919050565b6131b28361317d565b6131c66131be8261319f565b848454613121565b825550505050565b600090565b6131db6131ce565b6131e68184846131a9565b505050565b5b8181101561320a576131ff6000826131d3565b6001810190506131ec565b5050565b601f82111561324f57613220816130ef565b61322984613104565b81016020851015613238578190505b61324c61324485613104565b8301826131eb565b50505b505050565b600082821c905092915050565b600061327260001984600802613254565b1980831691505092915050565b600061328b8383613261565b9150826002028217905092915050565b6132a48261203c565b67ffffffffffffffff8111156132bd576132bc6122d6565b5b6132c782546127e7565b6132d282828561320e565b600060209050601f83116001811461330557600084156132f3578287015190505b6132fd858261327f565b865550613365565b601f198416613313866130ef565b60005b8281101561333b57848901518255600182019150602085019450602081019050613316565b868310156133585784890151613354601f891682613261565b8355505b6001600288020188555050505b505050505050565b7f4552433732313a207472616e7366657220746f206e6f6e20455243373231526560008201527f63656976657220696d706c656d656e7465720000000000000000000000000000602082015250565b60006133c9603283612047565b91506133d48261336d565b604082019050919050565b600060208201905081810360008301526133f8816133bc565b9050919050565b600061340b8285612ad7565b91506134178284612ad7565b91508190509392505050565b600081519050919050565b600082825260208201905092915050565b600061344a82613423565b613454818561342e565b9350613464818560208601612058565b61346d8161208b565b840191505092915050565b600060808201905061348d600083018761218c565b61349a602083018661218c565b6134a760408301856122a2565b81810360608301526134b9818461343f565b905095945050505050565b6000815190506134d381611fad565b92915050565b6000602082840312156134ef576134ee611f77565b5b60006134fd848285016134c4565b91505092915050565b7f4e487b7100000000000000000000000000000000000000000000000000000000600052601260045260246000fdfea264697066735822122073fe1d9c9e00e7a1d8ac9e97bb7376f85e597551406990d2cdfbddb767f6d40d64736f6c634300080f0033",
  "linkReferences": {},
  "deployedLinkReferences": {}
}