{
  "_format": "hh-sol-artifact-1",
  "contractName": "MyTokenNFT",
  "sourceName": "contracts/Token.sol",
  "abi": [
    {
      "inputs": [],
      "stateMutability": "nonpayable",
      "type": "constructor"
    },
    {
      "anonymous": false,
      "inputs": [
        {
          "indexed": true,
          "internalType": "address",
          "name": "owner",
          "type": "address"
        },
        {
          "indexed": true,
          "internalType": "address",
          "name": "approved",
          "type": "address"
        },
        {
          "indexed": true,
          "internalType": "uint256",
          "name": "tokenId",
          "type": "uint256"
        }
      ],
      "name": "Approval",
      "type": "event"
    },
    {
      "anonymous": false,
      "inputs": [
        {
          "indexed": true,
          "internalType": "address",
          "name": "owner",
          "type": "address"
        },
        {
          "indexed": true,
          "internalType": "address",
          "name": "operator",
          "type": "address"
        },
        {
          "indexed": false,
          "internalType": "bool",
          "name": "approved",
          "type": "bool"
        }
      ],
      "name": "ApprovalForAll",
      "type": "event"
    },
    {
      "anonymous": false,
      "inputs": [
        {
          "indexed": false,
          "internalType": "uint256",
          "name": "_fromTokenId",
          "type": "uint256"
        },
        {
          "indexed": false,
          "internalType": "uint256",
          "name": "_toTokenId",
          "type": "uint256"
        }
      ],
      "name": "BatchMetadataUpdate",
      "type": "event"
    },
    {
      "anonymous": false,
      "inputs": [
        {
          "indexed": false,
          "internalType": "uint256",
          "name": "_tokenId",
          "type": "uint256"
        }
      ],
      "name": "MetadataUpdate",
      "type": "event"
    },
    {
      "anonymous": false,
      "inputs": [
        {
          "indexed": true,
          "internalType": "address",
          "name": "previousOwner",
          "type": "address"
        },
        {
          "indexed": true,
          "internalType": "address",
          "name": "newOwner",
          "type": "address"
        }
      ],
      "name": "OwnershipTransferred",
      "type": "event"
    },
    {
      "anonymous": false,
      "inputs": [
        {
          "indexed": true,
          "internalType": "address",
          "name": "from",
          "type": "address"
        },
        {
          "indexed": true,
          "internalType": "address",
          "name": "to",
          "type": "address"
        },
        {
          "indexed": true,
          "internalType": "uint256",
          "name": "tokenId",
          "type": "uint256"
        }
      ],
      "name": "Transfer",
      "type": "event"
    },
    {
      "inputs": [
        {
          "internalType": "address",
          "name": "to",
          "type": "address"
        },
        {
          "internalType": "uint256",
          "name": "tokenId",
          "type": "uint256"
        }
      ],
      "name": "approve",
      "outputs": [],
      "stateMutability": "nonpayable",
      "type": "function"
    },
    {
      "inputs": [
        {
          "internalType": "address",
          "name": "owner",
          "type": "address"
        }
      ],
      "name": "balanceOf",
      "outputs": [
        {
          "internalType": "uint256",
          "name": "",
          "type": "uint256"
        }
      ],
      "stateMutability": "view",
      "type": "function"
    },
    {
      "inputs": [
        {
          "internalType": "uint256",
          "name": "tokenId",
          "type": "uint256"
        }
      ],
      "name": "getApproved",
      "outputs": [
        {
          "internalType": "address",
          "name": "",
          "type": "address"
        }
      ],
      "stateMutability": "view",
      "type": "function"
    },
    {
      "inputs": [
        {
          "internalType": "address",
          "name": "owner",
          "type": "address"
        },
        {
          "internalType": "address",
          "name": "operator",
          "type": "address"
        }
      ],
      "name": "isApprovedForAll",
      "outputs": [
        {
          "internalType": "bool",
          "name": "",
          "type": "bool"
        }
      ],
      "stateMutability": "view",
      "type": "function"
    },
    {
      "inputs": [
        {
          "internalType": "string",
          "name": "uri",
          "type": "string"
        }
      ],
      "name": "isContentOwned",
      "outputs": [
        {
          "internalType": "bool",
          "name": "",
          "type": "bool"
        }
      ],
      "stateMutability": "view",
      "type": "function"
    },
    {
      "inputs": [],
      "name": "name",
      "outputs": [
        {
          "internalType": "string",
          "name": "",
          "type": "string"
        }
      ],
      "stateMutability": "view",
      "type": "function"
    },
    {
      "inputs": [],
      "name": "owner",
      "outputs": [
        {
          "internalType": "address",
          "name": "",
          "type": "address"
        }
      ],
      "stateMutability": "view",
      "type": "function"
    },
    {
      "inputs": [
        {
          "internalType": "uint256",
          "name": "tokenId",
          "type": "uint256"
        }
      ],
      "name": "ownerOf",
      "outputs": [
        {
          "internalType": "address",
          "name": "",
          "type": "address"
        }
      ],
      "stateMutability": "view",
      "type": "function"
    },
    {
      "inputs": [
        {
          "internalType": "address",
          "name": "recipient",
          "type": "address"
        },
        {
          "internalType": "string",
          "name": "metadataURI",
          "type": "string"
        }
      ],
      "name": "payToMint",
      "outputs": [
        {
          "internalType": "uint256",
          "name": "",
          "type": "uint256"
        }
      ],
      "stateMutability": "payable",
      "type": "function"
    },
    {
      "inputs": [],
      "name": "renounceOwnership",
      "outputs": [],
      "stateMutability": "nonpayable",
      "type": "function"
    },
    {
      "inputs": [
        {
          "internalType": "address",
          "name": "to",
          "type": "address"
        },
        {
          "internalType": "string",
          "name": "uri",
          "type": "string"
        }
      ],
      "name": "safeMint",
      "outputs": [],
      "stateMutability": "nonpayable",
      "type": "function"
    },
    {
      "inputs": [
        {
          "internalType": "address",
          "name": "from",
          "type": "address"
        },
        {
          "internalType": "address",
          "name": "to",
          "type": "address"
        },
        {
          "internalType": "uint256",
          "name": "tokenId",
          "type": "uint256"
        }
      ],
      "name": "safeTransferFrom",
      "outputs": [],
      "stateMutability": "nonpayable",
      "type": "function"
    },
    {
      "inputs": [
        {
          "internalType": "address",
          "name": "from",
          "type": "address"
        },
        {
          "internalType": "address",
          "name": "to",
          "type": "address"
        },
        {
          "internalType": "uint256",
          "name": "tokenId",
          "type": "uint256"
        },
        {
          "internalType": "bytes",
          "name": "data",
          "type": "bytes"
        }
      ],
      "name": "safeTransferFrom",
      "outputs": [],
      "stateMutability": "nonpayable",
      "type": "function"
    },
    {
      "inputs": [
        {
          "internalType": "address",
          "name": "operator",
          "type": "address"
        },
        {
          "internalType": "bool",
          "name": "approved",
          "type": "bool"
        }
      ],
      "name": "setApprovalForAll",
      "outputs": [],
      "stateMutability": "nonpayable",
      "type": "function"
    },
    {
      "inputs": [
        {
          "internalType": "bytes4",
          "name": "interfaceId",
          "type": "bytes4"
        }
      ],
      "name": "supportsInterface",
      "outputs": [
        {
          "internalType": "bool",
          "name": "",
          "type": "bool"
        }
      ],
      "stateMutability": "view",
      "type": "function"
    },
    {
      "inputs": [],
      "name": "symbol",
      "outputs": [
        {
          "internalType": "string",
          "name": "",
          "type": "string"
        }
      ],
      "stateMutability": "view",
      "type": "function"
    },
    {
      "inputs": [
        {
          "internalType": "uint256",
          "name": "tokenId",
          "type": "uint256"
        }
      ],
      "name": "tokenURI",
      "outputs": [
        {
          "internalType": "string",
          "name": "",
          "type": "string"
        }
      ],
      "stateMutability": "view",
      "type": "function"
    },
    {
      "inputs": [
        {
          "internalType": "address",
          "name": "from",
          "type": "address"
        },
        {
          "internalType": "address",
          "name": "to",
          "type": "address"
        },
        {
          "internalType": "uint256",
          "name": "tokenId",
          "type": "uint256"
        }
      ],
      "name": "transferFrom",
      "outputs": [],
      "stateMutability": "nonpayable",
      "type": "function"
    },
    {
      "inputs": [
        {
          "internalType": "address",
          "name": "newOwner",
          "type": "address"
        }
      ],
      "name": "transferOwnership",
      "outputs": [],
      "stateMutability": "nonpayable",
      "type": "function"
    }
  ],
  "bytecode": "0x60806040523480156200001157600080fd5b506040518060400160405280600a81526020017f4d79546f6b656e4e4654000000000000000000000000000000000000000000008152506040518060400160405280600481526020017f564e46540000000000000000000000000000000000000000000000000000000081525081600090816200008f919062000412565b508060019081620000a1919062000412565b505050620000c4620000b8620000ca60201b60201c565b620000d260201b60201c565b620004f9565b600033905090565b6000600760009054906101000a900473ffffffffffffffffffffffffffffffffffffffff16905081600760006101000a81548173ffffffffffffffffffffffffffffffffffffffff021916908373ffffffffffffffffffffffffffffffffffffffff1602179055508173ffffffffffffffffffffffffffffffffffffffff168173ffffffffffffffffffffffffffffffffffffffff167f8be0079c531659141344cd1fd0a4f28419497f9722a3daafe3b4186f6b6457e060405160405180910390a35050565b600081519050919050565b7f4e487b7100000000000000000000000000000000000000000000000000000000600052604160045260246000fd5b7f4e487b7100000000000000000000000000000000000000000000000000000000600052602260045260246000fd5b600060028204905060018216806200021a57607f821691505b60208210810362000230576200022f620001d2565b5b50919050565b60008190508160005260206000209050919050565b60006020601f8301049050919050565b600082821b905092915050565b6000600883026200029a7fffffffffffffffffffffffffffffffffffffffffffffffffffffffffffffffff826200025b565b620002a686836200025b565b95508019841693508086168417925050509392505050565b6000819050919050565b6000819050919050565b6000620002f3620002ed620002e784620002be565b620002c8565b620002be565b9050919050565b6000819050919050565b6200030f83620002d2565b620003276200031e82620002fa565b84845462000268565b825550505050565b600090565b6200033e6200032f565b6200034b81848462000304565b505050565b5b8181101562000373576200036760008262000334565b60018101905062000351565b5050565b601f821115620003c2576200038c8162000236565b62000397846200024b565b81016020851015620003a7578190505b620003bf620003b6856200024b565b83018262000350565b50505b505050565b600082821c905092915050565b6000620003e760001984600802620003c7565b1980831691505092915050565b6000620004028383620003d4565b9150826002028217905092915050565b6200041d8262000198565b67ffffffffffffffff811115620004395762000438620001a3565b5b62000445825462000201565b6200045282828562000377565b600060209050601f8311600181146200048a576000841562000475578287015190505b620004818582620003f4565b865550620004f1565b601f1984166200049a8662000236565b60005b82811015620004c4578489015182556001820191506020850194506020810190506200049d565b86831015620004e45784890151620004e0601f891682620003d4565b8355505b6001600288020188555050505b505050505050565b6132e080620005096000396000f3fe6080604052600436106101145760003560e01c8063715018a6116100a0578063b88d4fde11610064578063b88d4fde146103b6578063c87b56dd146103df578063d204c45e1461041c578063e985e9c514610445578063f2fde38b1461048257610114565b8063715018a6146102e35780638da5cb5b146102fa57806395d89b41146103255780639f1cabc614610350578063a22cb4651461038d57610114565b806323b872dd116100e757806323b872dd146101e757806342842e0e14610210578063615fd9e2146102395780636352211e1461026957806370a08231146102a657610114565b806301ffc9a71461011957806306fdde0314610156578063081812fc14610181578063095ea7b3146101be575b600080fd5b34801561012557600080fd5b50610140600480360381019061013b9190611f90565b6104ab565b60405161014d9190611fd8565b60405180910390f35b34801561016257600080fd5b5061016b61050c565b604051610178919061208c565b60405180910390f35b34801561018d57600080fd5b506101a860048036038101906101a391906120e4565b61059e565b6040516101b59190612152565b60405180910390f35b3480156101ca57600080fd5b506101e560048036038101906101e09190612199565b6105e4565b005b3480156101f357600080fd5b5061020e600480360381019061020991906121d9565b6106fb565b005b34801561021c57600080fd5b50610237600480360381019061023291906121d9565b61075b565b005b610253600480360381019061024e9190612361565b61077b565b60405161026091906123cc565b60405180910390f35b34801561027557600080fd5b50610290600480360381019061028b91906120e4565b6108a6565b60405161029d9190612152565b60405180910390f35b3480156102b257600080fd5b506102cd60048036038101906102c891906123e7565b61092c565b6040516102da91906123cc565b60405180910390f35b3480156102ef57600080fd5b506102f86109e3565b005b34801561030657600080fd5b5061030f6109f7565b60405161031c9190612152565b60405180910390f35b34801561033157600080fd5b5061033a610a21565b604051610347919061208c565b60405180910390f35b34801561035c57600080fd5b5061037760048036038101906103729190612414565b610ab3565b6040516103849190611fd8565b60405180910390f35b34801561039957600080fd5b506103b460048036038101906103af9190612489565b610aee565b005b3480156103c257600080fd5b506103dd60048036038101906103d8919061256a565b610b04565b005b3480156103eb57600080fd5b50610406600480360381019061040191906120e4565b610b66565b604051610413919061208c565b60405180910390f35b34801561042857600080fd5b50610443600480360381019061043e9190612361565b610b78565b005b34801561045157600080fd5b5061046c600480360381019061046791906125ed565b610bb1565b6040516104799190611fd8565b60405180910390f35b34801561048e57600080fd5b506104a960048036038101906104a491906123e7565b610c45565b005b6000634906490660e01b7bffffffffffffffffffffffffffffffffffffffffffffffffffffffff1916827bffffffffffffffffffffffffffffffffffffffffffffffffffffffff19161480610505575061050482610cc8565b5b9050919050565b60606000805461051b9061265c565b80601f01602080910402602001604051908101604052809291908181526020018280546105479061265c565b80156105945780601f1061056957610100808354040283529160200191610594565b820191906000526020600020905b81548152906001019060200180831161057757829003601f168201915b5050505050905090565b60006105a982610daa565b6004600083815260200190815260200160002060009054906101000a900473ffffffffffffffffffffffffffffffffffffffff169050919050565b60006105ef826108a6565b90508073ffffffffffffffffffffffffffffffffffffffff168373ffffffffffffffffffffffffffffffffffffffff160361065f576040517f08c379a0000000000000000000000000000000000000000000000000000000008152600401610656906126ff565b60405180910390fd5b8073ffffffffffffffffffffffffffffffffffffffff1661067e610df5565b73ffffffffffffffffffffffffffffffffffffffff1614806106ad57506106ac816106a7610df5565b610bb1565b5b6106ec576040517f08c379a00000000000000000000000000000000000000000000000000000000081526004016106e390612791565b60405180910390fd5b6106f68383610dfd565b505050565b61070c610706610df5565b82610eb6565b61074b576040517f08c379a000000000000000000000000000000000000000000000000000000000815260040161074290612823565b60405180910390fd5b610756838383610f4b565b505050565b61077683838360405180602001604052806000815250610b04565b505050565b6000600160088360405161078f919061287f565b908152602001604051809103902060009054906101000a900460ff1660ff16036107ee576040517f08c379a00000000000000000000000000000000000000000000000000000000081526004016107e5906128e2565b60405180910390fd5b66b1a2bc2ec50000341015610838576040517f08c379a000000000000000000000000000000000000000000000000000000000815260040161082f9061294e565b60405180910390fd5b60006108446009611244565b90506108506009611252565b6001600884604051610862919061287f565b908152602001604051809103902060006101000a81548160ff021916908360ff1602179055506108928482611268565b61089c8184611485565b8091505092915050565b6000806108b283611529565b9050600073ffffffffffffffffffffffffffffffffffffffff168173ffffffffffffffffffffffffffffffffffffffff1603610923576040517f08c379a000000000000000000000000000000000000000000000000000000000815260040161091a906129ba565b60405180910390fd5b80915050919050565b60008073ffffffffffffffffffffffffffffffffffffffff168273ffffffffffffffffffffffffffffffffffffffff160361099c576040517f08c379a000000000000000000000000000000000000000000000000000000000815260040161099390612a4c565b60405180910390fd5b600360008373ffffffffffffffffffffffffffffffffffffffff1673ffffffffffffffffffffffffffffffffffffffff168152602001908152602001600020549050919050565b6109eb611566565b6109f560006115e4565b565b6000600760009054906101000a900473ffffffffffffffffffffffffffffffffffffffff16905090565b606060018054610a309061265c565b80601f0160208091040260200160405190810160405280929190818152602001828054610a5c9061265c565b8015610aa95780601f10610a7e57610100808354040283529160200191610aa9565b820191906000526020600020905b815481529060010190602001808311610a8c57829003601f168201915b5050505050905090565b60006001600883604051610ac7919061287f565b908152602001604051809103902060009054906101000a900460ff1660ff16149050919050565b610b00610af9610df5565b83836116aa565b5050565b610b15610b0f610df5565b83610eb6565b610b54576040517f08c379a0000000000000000000000000000000000000000000000000000000008152600401610b4b90612823565b60405180910390fd5b610b6084848484611816565b50505050565b6060610b7182611872565b9050919050565b610b80611566565b6000610b8c6009611244565b9050610b986009611252565b610ba28382611984565b610bac8183611485565b505050565b6000600560008473ffffffffffffffffffffffffffffffffffffffff1673ffffffffffffffffffffffffffffffffffffffff16815260200190815260200160002060008373ffffffffffffffffffffffffffffffffffffffff1673ffffffffffffffffffffffffffffffffffffffff16815260200190815260200160002060009054906101000a900460ff16905092915050565b610c4d611566565b600073ffffffffffffffffffffffffffffffffffffffff168173ffffffffffffffffffffffffffffffffffffffff1603610cbc576040517f08c379a0000000000000000000000000000000000000000000000000000000008152600401610cb390612ade565b60405180910390fd5b610cc5816115e4565b50565b60007f80ac58cd000000000000000000000000000000000000000000000000000000007bffffffffffffffffffffffffffffffffffffffffffffffffffffffff1916827bffffffffffffffffffffffffffffffffffffffffffffffffffffffff19161480610d9357507f5b5e139f000000000000000000000000000000000000000000000000000000007bffffffffffffffffffffffffffffffffffffffffffffffffffffffff1916827bffffffffffffffffffffffffffffffffffffffffffffffffffffffff1916145b80610da35750610da2826119a2565b5b9050919050565b610db381611a0c565b610df2576040517f08c379a0000000000000000000000000000000000000000000000000000000008152600401610de9906129ba565b60405180910390fd5b50565b600033905090565b816004600083815260200190815260200160002060006101000a81548173ffffffffffffffffffffffffffffffffffffffff021916908373ffffffffffffffffffffffffffffffffffffffff160217905550808273ffffffffffffffffffffffffffffffffffffffff16610e70836108a6565b73ffffffffffffffffffffffffffffffffffffffff167f8c5be1e5ebec7d5bd14f71427d1e84f3dd0314c0f7b2291e5b200ac8c7c3b92560405160405180910390a45050565b600080610ec2836108a6565b90508073ffffffffffffffffffffffffffffffffffffffff168473ffffffffffffffffffffffffffffffffffffffff161480610f045750610f038185610bb1565b5b80610f4257508373ffffffffffffffffffffffffffffffffffffffff16610f2a8461059e565b73ffffffffffffffffffffffffffffffffffffffff16145b91505092915050565b8273ffffffffffffffffffffffffffffffffffffffff16610f6b826108a6565b73ffffffffffffffffffffffffffffffffffffffff1614610fc1576040517f08c379a0000000000000000000000000000000000000000000000000000000008152600401610fb890612b70565b60405180910390fd5b600073ffffffffffffffffffffffffffffffffffffffff168273ffffffffffffffffffffffffffffffffffffffff1603611030576040517f08c379a000000000000000000000000000000000000000000000000000000000815260040161102790612c02565b60405180910390fd5b61103d8383836001611a4d565b8273ffffffffffffffffffffffffffffffffffffffff1661105d826108a6565b73ffffffffffffffffffffffffffffffffffffffff16146110b3576040517f08c379a00000000000000000000000000000000000000000000000000000000081526004016110aa90612b70565b60405180910390fd5b6004600082815260200190815260200160002060006101000a81549073ffffffffffffffffffffffffffffffffffffffff02191690556001600360008573ffffffffffffffffffffffffffffffffffffffff1673ffffffffffffffffffffffffffffffffffffffff168152602001908152602001600020600082825403925050819055506001600360008473ffffffffffffffffffffffffffffffffffffffff1673ffffffffffffffffffffffffffffffffffffffff16815260200190815260200160002060008282540192505081905550816002600083815260200190815260200160002060006101000a81548173ffffffffffffffffffffffffffffffffffffffff021916908373ffffffffffffffffffffffffffffffffffffffff160217905550808273ffffffffffffffffffffffffffffffffffffffff168473ffffffffffffffffffffffffffffffffffffffff167fddf252ad1be2c89b69c2b068fc378daa952ba7f163c4a11628f55a4df523b3ef60405160405180910390a461123f8383836001611a53565b505050565b600081600001549050919050565b6001816000016000828254019250508190555050565b600073ffffffffffffffffffffffffffffffffffffffff168273ffffffffffffffffffffffffffffffffffffffff16036112d7576040517f08c379a00000000000000000000000000000000000000000000000000000000081526004016112ce90612c6e565b60405180910390fd5b6112e081611a0c565b15611320576040517f08c379a000000000000000000000000000000000000000000000000000000000815260040161131790612cda565b60405180910390fd5b61132e600083836001611a4d565b61133781611a0c565b15611377576040517f08c379a000000000000000000000000000000000000000000000000000000000815260040161136e90612cda565b60405180910390fd5b6001600360008473ffffffffffffffffffffffffffffffffffffffff1673ffffffffffffffffffffffffffffffffffffffff16815260200190815260200160002060008282540192505081905550816002600083815260200190815260200160002060006101000a81548173ffffffffffffffffffffffffffffffffffffffff021916908373ffffffffffffffffffffffffffffffffffffffff160217905550808273ffffffffffffffffffffffffffffffffffffffff16600073ffffffffffffffffffffffffffffffffffffffff167fddf252ad1be2c89b69c2b068fc378daa952ba7f163c4a11628f55a4df523b3ef60405160405180910390a4611481600083836001611a53565b5050565b61148e82611a0c565b6114cd576040517f08c379a00000000000000000000000000000000000000000000000000000000081526004016114c490612d6c565b60405180910390fd5b806006600084815260200190815260200160002090816114ed9190612f38565b507ff8e1a15aba9398e019f0b49df1a4fde98ee17ae345cb5f6b5e2c27f5033e8ce78260405161151d91906123cc565b60405180910390a15050565b60006002600083815260200190815260200160002060009054906101000a900473ffffffffffffffffffffffffffffffffffffffff169050919050565b61156e610df5565b73ffffffffffffffffffffffffffffffffffffffff1661158c6109f7565b73ffffffffffffffffffffffffffffffffffffffff16146115e2576040517f08c379a00000000000000000000000000000000000000000000000000000000081526004016115d990613056565b60405180910390fd5b565b6000600760009054906101000a900473ffffffffffffffffffffffffffffffffffffffff16905081600760006101000a81548173ffffffffffffffffffffffffffffffffffffffff021916908373ffffffffffffffffffffffffffffffffffffffff1602179055508173ffffffffffffffffffffffffffffffffffffffff168173ffffffffffffffffffffffffffffffffffffffff167f8be0079c531659141344cd1fd0a4f28419497f9722a3daafe3b4186f6b6457e060405160405180910390a35050565b8173ffffffffffffffffffffffffffffffffffffffff168373ffffffffffffffffffffffffffffffffffffffff1603611718576040517f08c379a000000000000000000000000000000000000000000000000000000000815260040161170f906130c2565b60405180910390fd5b80600560008573ffffffffffffffffffffffffffffffffffffffff1673ffffffffffffffffffffffffffffffffffffffff16815260200190815260200160002060008473ffffffffffffffffffffffffffffffffffffffff1673ffffffffffffffffffffffffffffffffffffffff16815260200190815260200160002060006101000a81548160ff0219169083151502179055508173ffffffffffffffffffffffffffffffffffffffff168373ffffffffffffffffffffffffffffffffffffffff167f17307eab39ab6107e8899845ad3d59bd9653f200f220920489ca2b5937696c31836040516118099190611fd8565b60405180910390a3505050565b611821848484610f4b565b61182d84848484611a59565b61186c576040517f08c379a000000000000000000000000000000000000000000000000000000000815260040161186390613154565b60405180910390fd5b50505050565b606061187d82610daa565b600060066000848152602001908152602001600020805461189d9061265c565b80601f01602080910402602001604051908101604052809291908181526020018280546118c99061265c565b80156119165780601f106118eb57610100808354040283529160200191611916565b820191906000526020600020905b8154815290600101906020018083116118f957829003601f168201915b505050505090506000611927611be0565b9050600081510361193c57819250505061197f565b600082511115611971578082604051602001611959929190613174565b6040516020818303038152906040529250505061197f565b61197a84611c1d565b925050505b919050565b61199e828260405180602001604052806000815250611c85565b5050565b60007f01ffc9a7000000000000000000000000000000000000000000000000000000007bffffffffffffffffffffffffffffffffffffffffffffffffffffffff1916827bffffffffffffffffffffffffffffffffffffffffffffffffffffffff1916149050919050565b60008073ffffffffffffffffffffffffffffffffffffffff16611a2e83611529565b73ffffffffffffffffffffffffffffffffffffffff1614159050919050565b50505050565b50505050565b6000611a7a8473ffffffffffffffffffffffffffffffffffffffff16611ce0565b15611bd3578373ffffffffffffffffffffffffffffffffffffffff1663150b7a02611aa3610df5565b8786866040518563ffffffff1660e01b8152600401611ac594939291906131ed565b6020604051808303816000875af1925050508015611b0157506040513d601f19601f82011682018060405250810190611afe919061324e565b60015b611b83573d8060008114611b31576040519150601f19603f3d011682016040523d82523d6000602084013e611b36565b606091505b506000815103611b7b576040517f08c379a0000000000000000000000000000000000000000000000000000000008152600401611b7290613154565b60405180910390fd5b805181602001fd5b63150b7a0260e01b7bffffffffffffffffffffffffffffffffffffffffffffffffffffffff1916817bffffffffffffffffffffffffffffffffffffffffffffffffffffffff191614915050611bd8565b600190505b949350505050565b60606040518060400160405280600781526020017f697066733a2f2f00000000000000000000000000000000000000000000000000815250905090565b6060611c2882610daa565b6000611c32611be0565b90506000815111611c525760405180602001604052806000815250611c7d565b80611c5c84611d03565b604051602001611c6d929190613174565b6040516020818303038152906040525b915050919050565b611c8f8383611268565b611c9c6000848484611a59565b611cdb576040517f08c379a0000000000000000000000000000000000000000000000000000000008152600401611cd290613154565b60405180910390fd5b505050565b6000808273ffffffffffffffffffffffffffffffffffffffff163b119050919050565b606060006001611d1284611dd1565b01905060008167ffffffffffffffff811115611d3157611d30612236565b5b6040519080825280601f01601f191660200182016040528015611d635781602001600182028036833780820191505090505b509050600082602001820190505b600115611dc6578080600190039150507f3031323334353637383961626364656600000000000000000000000000000000600a86061a8153600a8581611dba57611db961327b565b5b04945060008503611d71575b819350505050919050565b600080600090507a184f03e93ff9f4daa797ed6e38ed64bf6a1f0100000000000000008310611e2f577a184f03e93ff9f4daa797ed6e38ed64bf6a1f0100000000000000008381611e2557611e2461327b565b5b0492506040810190505b6d04ee2d6d415b85acef81000000008310611e6c576d04ee2d6d415b85acef81000000008381611e6257611e6161327b565b5b0492506020810190505b662386f26fc100008310611e9b57662386f26fc100008381611e9157611e9061327b565b5b0492506010810190505b6305f5e1008310611ec4576305f5e1008381611eba57611eb961327b565b5b0492506008810190505b6127108310611ee9576127108381611edf57611ede61327b565b5b0492506004810190505b60648310611f0c5760648381611f0257611f0161327b565b5b0492506002810190505b600a8310611f1b576001810190505b80915050919050565b6000604051905090565b600080fd5b600080fd5b60007fffffffff0000000000000000000000000000000000000000000000000000000082169050919050565b611f6d81611f38565b8114611f7857600080fd5b50565b600081359050611f8a81611f64565b92915050565b600060208284031215611fa657611fa5611f2e565b5b6000611fb484828501611f7b565b91505092915050565b60008115159050919050565b611fd281611fbd565b82525050565b6000602082019050611fed6000830184611fc9565b92915050565b600081519050919050565b600082825260208201905092915050565b60005b8381101561202d578082015181840152602081019050612012565b8381111561203c576000848401525b50505050565b6000601f19601f8301169050919050565b600061205e82611ff3565b6120688185611ffe565b935061207881856020860161200f565b61208181612042565b840191505092915050565b600060208201905081810360008301526120a68184612053565b905092915050565b6000819050919050565b6120c1816120ae565b81146120cc57600080fd5b50565b6000813590506120de816120b8565b92915050565b6000602082840312156120fa576120f9611f2e565b5b6000612108848285016120cf565b91505092915050565b600073ffffffffffffffffffffffffffffffffffffffff82169050919050565b600061213c82612111565b9050919050565b61214c81612131565b82525050565b60006020820190506121676000830184612143565b92915050565b61217681612131565b811461218157600080fd5b50565b6000813590506121938161216d565b92915050565b600080604083850312156121b0576121af611f2e565b5b60006121be85828601612184565b92505060206121cf858286016120cf565b9150509250929050565b6000806000606084860312156121f2576121f1611f2e565b5b600061220086828701612184565b935050602061221186828701612184565b9250506040612222868287016120cf565b9150509250925092565b600080fd5b600080fd5b7f4e487b7100000000000000000000000000000000000000000000000000000000600052604160045260246000fd5b61226e82612042565b810181811067ffffffffffffffff8211171561228d5761228c612236565b5b80604052505050565b60006122a0611f24565b90506122ac8282612265565b919050565b600067ffffffffffffffff8211156122cc576122cb612236565b5b6122d582612042565b9050602081019050919050565b82818337600083830152505050565b60006123046122ff846122b1565b612296565b9050828152602081018484840111156123205761231f612231565b5b61232b8482856122e2565b509392505050565b600082601f8301126123485761234761222c565b5b81356123588482602086016122f1565b91505092915050565b6000806040838503121561237857612377611f2e565b5b600061238685828601612184565b925050602083013567ffffffffffffffff8111156123a7576123a6611f33565b5b6123b385828601612333565b9150509250929050565b6123c6816120ae565b82525050565b60006020820190506123e160008301846123bd565b92915050565b6000602082840312156123fd576123fc611f2e565b5b600061240b84828501612184565b91505092915050565b60006020828403121561242a57612429611f2e565b5b600082013567ffffffffffffffff81111561244857612447611f33565b5b61245484828501612333565b91505092915050565b61246681611fbd565b811461247157600080fd5b50565b6000813590506124838161245d565b92915050565b600080604083850312156124a05761249f611f2e565b5b60006124ae85828601612184565b92505060206124bf85828601612474565b9150509250929050565b600067ffffffffffffffff8211156124e4576124e3612236565b5b6124ed82612042565b9050602081019050919050565b600061250d612508846124c9565b612296565b90508281526020810184848401111561252957612528612231565b5b6125348482856122e2565b509392505050565b600082601f8301126125515761255061222c565b5b81356125618482602086016124fa565b91505092915050565b6000806000806080858703121561258457612583611f2e565b5b600061259287828801612184565b94505060206125a387828801612184565b93505060406125b4878288016120cf565b925050606085013567ffffffffffffffff8111156125d5576125d4611f33565b5b6125e18782880161253c565b91505092959194509250565b6000806040838503121561260457612603611f2e565b5b600061261285828601612184565b925050602061262385828601612184565b9150509250929050565b7f4e487b7100000000000000000000000000000000000000000000000000000000600052602260045260246000fd5b6000600282049050600182168061267457607f821691505b6020821081036126875761268661262d565b5b50919050565b7f4552433732313a20617070726f76616c20746f2063757272656e74206f776e6560008201527f7200000000000000000000000000000000000000000000000000000000000000602082015250565b60006126e9602183611ffe565b91506126f48261268d565b604082019050919050565b60006020820190508181036000830152612718816126dc565b9050919050565b7f4552433732313a20617070726f76652063616c6c6572206973206e6f7420746f60008201527f6b656e206f776e6572206f7220617070726f76656420666f7220616c6c000000602082015250565b600061277b603d83611ffe565b91506127868261271f565b604082019050919050565b600060208201905081810360008301526127aa8161276e565b9050919050565b7f4552433732313a2063616c6c6572206973206e6f7420746f6b656e206f776e6560008201527f72206f7220617070726f76656400000000000000000000000000000000000000602082015250565b600061280d602d83611ffe565b9150612818826127b1565b604082019050919050565b6000602082019050818103600083015261283c81612800565b9050919050565b600081905092915050565b600061285982611ff3565b6128638185612843565b935061287381856020860161200f565b80840191505092915050565b600061288b828461284e565b915081905092915050565b7f4e465420616c7265616479206d696e7465642100000000000000000000000000600082015250565b60006128cc601383611ffe565b91506128d782612896565b602082019050919050565b600060208201905081810360008301526128fb816128bf565b9050919050565b7f4e65656420746f20706179207570210000000000000000000000000000000000600082015250565b6000612938600f83611ffe565b915061294382612902565b602082019050919050565b600060208201905081810360008301526129678161292b565b9050919050565b7f4552433732313a20696e76616c696420746f6b656e2049440000000000000000600082015250565b60006129a4601883611ffe565b91506129af8261296e565b602082019050919050565b600060208201905081810360008301526129d381612997565b9050919050565b7f4552433732313a2061646472657373207a65726f206973206e6f74206120766160008201527f6c6964206f776e65720000000000000000000000000000000000000000000000602082015250565b6000612a36602983611ffe565b9150612a41826129da565b604082019050919050565b60006020820190508181036000830152612a6581612a29565b9050919050565b7f4f776e61626c653a206e6577206f776e657220697320746865207a65726f206160008201527f6464726573730000000000000000000000000000000000000000000000000000602082015250565b6000612ac8602683611ffe565b9150612ad382612a6c565b604082019050919050565b60006020820190508181036000830152612af781612abb565b9050919050565b7f4552433732313a207472616e736665722066726f6d20696e636f72726563742060008201527f6f776e6572000000000000000000000000000000000000000000000000000000602082015250565b6000612b5a602583611ffe565b9150612b6582612afe565b604082019050919050565b60006020820190508181036000830152612b8981612b4d565b9050919050565b7f4552433732313a207472616e7366657220746f20746865207a65726f2061646460008201527f7265737300000000000000000000000000000000000000000000000000000000602082015250565b6000612bec602483611ffe565b9150612bf782612b90565b604082019050919050565b60006020820190508181036000830152612c1b81612bdf565b9050919050565b7f4552433732313a206d696e7420746f20746865207a65726f2061646472657373600082015250565b6000612c58602083611ffe565b9150612c6382612c22565b602082019050919050565b60006020820190508181036000830152612c8781612c4b565b9050919050565b7f4552433732313a20746f6b656e20616c7265616479206d696e74656400000000600082015250565b6000612cc4601c83611ffe565b9150612ccf82612c8e565b602082019050919050565b60006020820190508181036000830152612cf381612cb7565b9050919050565b7f45524337323155524953746f726167653a2055524920736574206f66206e6f6e60008201527f6578697374656e7420746f6b656e000000000000000000000000000000000000602082015250565b6000612d56602e83611ffe565b9150612d6182612cfa565b604082019050919050565b60006020820190508181036000830152612d8581612d49565b9050919050565b60008190508160005260206000209050919050565b60006020601f8301049050919050565b600082821b905092915050565b600060088302612dee7fffffffffffffffffffffffffffffffffffffffffffffffffffffffffffffffff82612db1565b612df88683612db1565b95508019841693508086168417925050509392505050565b6000819050919050565b6000612e35612e30612e2b846120ae565b612e10565b6120ae565b9050919050565b6000819050919050565b612e4f83612e1a565b612e63612e5b82612e3c565b848454612dbe565b825550505050565b600090565b612e78612e6b565b612e83818484612e46565b505050565b5b81811015612ea757612e9c600082612e70565b600181019050612e89565b5050565b601f821115612eec57612ebd81612d8c565b612ec684612da1565b81016020851015612ed5578190505b612ee9612ee185612da1565b830182612e88565b50505b505050565b600082821c905092915050565b6000612f0f60001984600802612ef1565b1980831691505092915050565b6000612f288383612efe565b9150826002028217905092915050565b612f4182611ff3565b67ffffffffffffffff811115612f5a57612f59612236565b5b612f64825461265c565b612f6f828285612eab565b600060209050601f831160018114612fa25760008415612f90578287015190505b612f9a8582612f1c565b865550613002565b601f198416612fb086612d8c565b60005b82811015612fd857848901518255600182019150602085019450602081019050612fb3565b86831015612ff55784890151612ff1601f891682612efe565b8355505b6001600288020188555050505b505050505050565b7f4f776e61626c653a2063616c6c6572206973206e6f7420746865206f776e6572600082015250565b6000613040602083611ffe565b915061304b8261300a565b602082019050919050565b6000602082019050818103600083015261306f81613033565b9050919050565b7f4552433732313a20617070726f766520746f2063616c6c657200000000000000600082015250565b60006130ac601983611ffe565b91506130b782613076565b602082019050919050565b600060208201905081810360008301526130db8161309f565b9050919050565b7f4552433732313a207472616e7366657220746f206e6f6e20455243373231526560008201527f63656976657220696d706c656d656e7465720000000000000000000000000000602082015250565b600061313e603283611ffe565b9150613149826130e2565b604082019050919050565b6000602082019050818103600083015261316d81613131565b9050919050565b6000613180828561284e565b915061318c828461284e565b91508190509392505050565b600081519050919050565b600082825260208201905092915050565b60006131bf82613198565b6131c981856131a3565b93506131d981856020860161200f565b6131e281612042565b840191505092915050565b60006080820190506132026000830187612143565b61320f6020830186612143565b61321c60408301856123bd565b818103606083015261322e81846131b4565b905095945050505050565b60008151905061324881611f64565b92915050565b60006020828403121561326457613263611f2e565b5b600061327284828501613239565b91505092915050565b7f4e487b7100000000000000000000000000000000000000000000000000000000600052601260045260246000fdfea2646970667358221220ede7825c65304db8d3176a41780412447f3c8f21da9157ed538d8fcc67eb94da64736f6c634300080f0033",
  "linkReferences": {},
  "deployedLinkReferences": {}
}